{
    "_format": "hh-sol-artifact-1",
    "contractName": "UniversalBondDepository",
    "sourceName": "contracts/BarterDepository.sol",
    "abi": [
        {
            "inputs": [
                {
                    "internalType": "address",
                    "name": "_SIG",
                    "type": "address"
                },
                {
                    "internalType": "address",
                    "name": "_principle",
                    "type": "address"
                },
                {
                    "internalType": "address",
                    "name": "_treasury",
                    "type": "address"
                },
                {
                    "internalType": "address",
                    "name": "_AtlasTeam",
                    "type": "address"
                },
                {
                    "internalType": "address",
                    "name": "_barterCalculator",
                    "type": "address"
                }
            ],
            "stateMutability": "nonpayable",
            "type": "constructor"
        },
        {
            "anonymous": false,
            "inputs": [
                {
                    "indexed": false,
                    "internalType": "uint256",
                    "name": "deposit",
                    "type": "uint256"
                },
                {
                    "indexed": true,
                    "internalType": "uint256",
                    "name": "payout",
                    "type": "uint256"
                },
                {
                    "indexed": true,
                    "internalType": "uint256",
                    "name": "expires",
                    "type": "uint256"
                },
                {
                    "indexed": true,
                    "internalType": "uint256",
                    "name": "priceInUSD",
                    "type": "uint256"
                }
            ],
            "name": "BarterCreated",
            "type": "event"
        },
        {
            "anonymous": false,
            "inputs": [
                {
                    "indexed": true,
                    "internalType": "uint256",
                    "name": "priceInUSD",
                    "type": "uint256"
                },
                {
                    "indexed": true,
                    "internalType": "uint256",
                    "name": "internalPrice",
                    "type": "uint256"
                },
                {
                    "indexed": true,
                    "internalType": "uint256",
                    "name": "debtRatio",
                    "type": "uint256"
                }
            ],
            "name": "BarterPriceChanged",
            "type": "event"
        },
        {
            "anonymous": false,
            "inputs": [
                {
                    "indexed": true,
                    "internalType": "address",
                    "name": "recipient",
                    "type": "address"
                },
                {
                    "indexed": false,
                    "internalType": "uint256",
                    "name": "payout",
                    "type": "uint256"
                },
                {
                    "indexed": false,
                    "internalType": "uint256",
                    "name": "remaining",
                    "type": "uint256"
                }
            ],
            "name": "BarterRedeemed",
            "type": "event"
        },
        {
            "anonymous": false,
            "inputs": [
                {
                    "indexed": false,
                    "internalType": "uint256",
                    "name": "initialBCV",
                    "type": "uint256"
                },
                {
                    "indexed": false,
                    "internalType": "uint256",
                    "name": "newBCV",
                    "type": "uint256"
                },
                {
                    "indexed": false,
                    "internalType": "uint256",
                    "name": "adjustment",
                    "type": "uint256"
                },
                {
                    "indexed": false,
                    "internalType": "bool",
                    "name": "addition",
                    "type": "bool"
                }
            ],
            "name": "ControlVariableAdjustment",
            "type": "event"
        },
        {
            "anonymous": false,
            "inputs": [
                {
                    "indexed": true,
                    "internalType": "address",
                    "name": "previousOwner",
                    "type": "address"
                },
                {
                    "indexed": true,
                    "internalType": "address",
                    "name": "newOwner",
                    "type": "address"
                }
            ],
            "name": "OwnershipPulled",
            "type": "event"
        },
        {
            "anonymous": false,
            "inputs": [
                {
                    "indexed": true,
                    "internalType": "address",
                    "name": "previousOwner",
                    "type": "address"
                },
                {
                    "indexed": true,
                    "internalType": "address",
                    "name": "newOwner",
                    "type": "address"
                }
            ],
            "name": "OwnershipPushed",
            "type": "event"
        },
        {
            "inputs": [],
            "name": "AtlasTeam",
            "outputs": [
                {
                    "internalType": "address",
                    "name": "",
                    "type": "address"
                }
            ],
            "stateMutability": "view",
            "type": "function"
        },
        {
            "inputs": [],
            "name": "SIG",
            "outputs": [
                {
                    "internalType": "address",
                    "name": "",
                    "type": "address"
                }
            ],
            "stateMutability": "view",
            "type": "function"
        },
        {
            "inputs": [],
            "name": "adjustment",
            "outputs": [
                {
                    "internalType": "bool",
                    "name": "add",
                    "type": "bool"
                },
                {
                    "internalType": "uint256",
                    "name": "rate",
                    "type": "uint256"
                },
                {
                    "internalType": "uint256",
                    "name": "target",
                    "type": "uint256"
                },
                {
                    "internalType": "uint256",
                    "name": "buffer",
                    "type": "uint256"
                },
                {
                    "internalType": "uint256",
                    "name": "lastBlock",
                    "type": "uint256"
                }
            ],
            "stateMutability": "view",
            "type": "function"
        },
        {
            "inputs": [],
            "name": "barterCalculator",
            "outputs": [
                {
                    "internalType": "address",
                    "name": "",
                    "type": "address"
                }
            ],
            "stateMutability": "view",
            "type": "function"
        },
        {
            "inputs": [
                {
                    "internalType": "address",
                    "name": "",
                    "type": "address"
                }
            ],
            "name": "barterInfo",
            "outputs": [
                {
                    "internalType": "uint256",
                    "name": "payout",
                    "type": "uint256"
                },
                {
                    "internalType": "uint256",
                    "name": "vesting",
                    "type": "uint256"
                },
                {
                    "internalType": "uint256",
                    "name": "lastBlock",
                    "type": "uint256"
                },
                {
                    "internalType": "uint256",
                    "name": "pricePaid",
                    "type": "uint256"
                }
            ],
            "stateMutability": "view",
            "type": "function"
        },
        {
            "inputs": [],
            "name": "barterPrice",
            "outputs": [
                {
                    "internalType": "uint256",
                    "name": "price_",
                    "type": "uint256"
                }
            ],
            "stateMutability": "view",
            "type": "function"
        },
        {
            "inputs": [],
            "name": "barterPriceInUSD",
            "outputs": [
                {
                    "internalType": "uint256",
                    "name": "price_",
                    "type": "uint256"
                }
            ],
            "stateMutability": "view",
            "type": "function"
        },
        {
            "inputs": [],
            "name": "currentDebt",
            "outputs": [
                {
                    "internalType": "uint256",
                    "name": "",
                    "type": "uint256"
                }
            ],
            "stateMutability": "view",
            "type": "function"
        },
        {
            "inputs": [],
            "name": "debtDecay",
            "outputs": [
                {
                    "internalType": "uint256",
                    "name": "decay_",
                    "type": "uint256"
                }
            ],
            "stateMutability": "view",
            "type": "function"
        },
        {
            "inputs": [],
            "name": "debtRatio",
            "outputs": [
                {
                    "internalType": "uint256",
                    "name": "debtRatio_",
                    "type": "uint256"
                }
            ],
            "stateMutability": "view",
            "type": "function"
        },
        {
            "inputs": [
                {
                    "internalType": "uint256",
                    "name": "_amount",
                    "type": "uint256"
                },
                {
                    "internalType": "uint256",
                    "name": "_maxPrice",
                    "type": "uint256"
                },
                {
                    "internalType": "address",
                    "name": "_depositor",
                    "type": "address"
                }
            ],
            "name": "deposit",
            "outputs": [
                {
                    "internalType": "uint256",
                    "name": "",
                    "type": "uint256"
                }
            ],
            "stateMutability": "nonpayable",
            "type": "function"
        },
        {
            "inputs": [
                {
                    "internalType": "uint256",
                    "name": "_controlVariable",
                    "type": "uint256"
                },
                {
                    "internalType": "uint256",
                    "name": "_vestingTerm",
                    "type": "uint256"
                },
                {
                    "internalType": "uint256",
                    "name": "_minimumPrice",
                    "type": "uint256"
                },
                {
                    "internalType": "uint256",
                    "name": "_maxPayout",
                    "type": "uint256"
                },
                {
                    "internalType": "uint256",
                    "name": "_fee",
                    "type": "uint256"
                },
                {
                    "internalType": "uint256",
                    "name": "_maxDebt",
                    "type": "uint256"
                },
                {
                    "internalType": "uint256",
                    "name": "_initialDebt",
                    "type": "uint256"
                }
            ],
            "name": "initializeBarterTerms",
            "outputs": [],
            "stateMutability": "nonpayable",
            "type": "function"
        },
        {
            "inputs": [],
            "name": "isLiquidityBarter",
            "outputs": [
                {
                    "internalType": "bool",
                    "name": "",
                    "type": "bool"
                }
            ],
            "stateMutability": "view",
            "type": "function"
        },
        {
            "inputs": [],
            "name": "lastDecay",
            "outputs": [
                {
                    "internalType": "uint256",
                    "name": "",
                    "type": "uint256"
                }
            ],
            "stateMutability": "view",
            "type": "function"
        },
        {
            "inputs": [],
            "name": "maxPayout",
            "outputs": [
                {
                    "internalType": "uint256",
                    "name": "",
                    "type": "uint256"
                }
            ],
            "stateMutability": "view",
            "type": "function"
        },
        {
            "inputs": [
                {
                    "internalType": "uint256",
                    "name": "_value",
                    "type": "uint256"
                }
            ],
            "name": "payoutFor",
            "outputs": [
                {
                    "internalType": "uint256",
                    "name": "",
                    "type": "uint256"
                }
            ],
            "stateMutability": "view",
            "type": "function"
        },
        {
            "inputs": [
                {
                    "internalType": "address",
                    "name": "_depositor",
                    "type": "address"
                }
            ],
            "name": "pendingPayoutFor",
            "outputs": [
                {
                    "internalType": "uint256",
                    "name": "pendingPayout_",
                    "type": "uint256"
                }
            ],
            "stateMutability": "view",
            "type": "function"
        },
        {
            "inputs": [
                {
                    "internalType": "address",
                    "name": "_depositor",
                    "type": "address"
                }
            ],
            "name": "percentVestedFor",
            "outputs": [
                {
                    "internalType": "uint256",
                    "name": "percentVested_",
                    "type": "uint256"
                }
            ],
            "stateMutability": "view",
            "type": "function"
        },
        {
            "inputs": [],
            "name": "policy",
            "outputs": [
                {
                    "internalType": "address",
                    "name": "",
                    "type": "address"
                }
            ],
            "stateMutability": "view",
            "type": "function"
        },
        {
            "inputs": [],
            "name": "principle",
            "outputs": [
                {
                    "internalType": "address",
                    "name": "",
                    "type": "address"
                }
            ],
            "stateMutability": "view",
            "type": "function"
        },
        {
            "inputs": [],
            "name": "pullManagement",
            "outputs": [],
            "stateMutability": "nonpayable",
            "type": "function"
        },
        {
            "inputs": [
                {
                    "internalType": "address",
                    "name": "newOwner_",
                    "type": "address"
                }
            ],
            "name": "pushManagement",
            "outputs": [],
            "stateMutability": "nonpayable",
            "type": "function"
        },
        {
            "inputs": [
                {
                    "internalType": "address",
                    "name": "_token",
                    "type": "address"
                }
            ],
            "name": "recoverLostToken",
            "outputs": [
                {
                    "internalType": "bool",
                    "name": "",
                    "type": "bool"
                }
            ],
            "stateMutability": "nonpayable",
            "type": "function"
        },
        {
            "inputs": [
                {
                    "internalType": "address",
                    "name": "_recipient",
                    "type": "address"
                },
                {
                    "internalType": "bool",
                    "name": "_stake",
                    "type": "bool"
                }
            ],
            "name": "redeem",
            "outputs": [
                {
                    "internalType": "uint256",
                    "name": "",
                    "type": "uint256"
                }
            ],
            "stateMutability": "nonpayable",
            "type": "function"
        },
        {
            "inputs": [],
            "name": "renounceManagement",
            "outputs": [],
            "stateMutability": "nonpayable",
            "type": "function"
        },
        {
            "inputs": [
                {
                    "internalType": "bool",
                    "name": "_addition",
                    "type": "bool"
                },
                {
                    "internalType": "uint256",
                    "name": "_increment",
                    "type": "uint256"
                },
                {
                    "internalType": "uint256",
                    "name": "_target",
                    "type": "uint256"
                },
                {
                    "internalType": "uint256",
                    "name": "_buffer",
                    "type": "uint256"
                }
            ],
            "name": "setAdjustment",
            "outputs": [],
            "stateMutability": "nonpayable",
            "type": "function"
        },
        {
            "inputs": [
                {
                    "internalType": "enum UniversalBondDepository.PARAMETER",
                    "name": "_parameter",
                    "type": "uint8"
                },
                {
                    "internalType": "uint256",
                    "name": "_input",
                    "type": "uint256"
                }
            ],
            "name": "setBarterTerms",
            "outputs": [],
            "stateMutability": "nonpayable",
            "type": "function"
        },
        {
            "inputs": [
                {
                    "internalType": "address",
                    "name": "_staking",
                    "type": "address"
                },
                {
                    "internalType": "bool",
                    "name": "_helper",
                    "type": "bool"
                }
            ],
            "name": "setStaking",
            "outputs": [],
            "stateMutability": "nonpayable",
            "type": "function"
        },
        {
            "inputs": [],
            "name": "staking",
            "outputs": [
                {
                    "internalType": "address",
                    "name": "",
                    "type": "address"
                }
            ],
            "stateMutability": "view",
            "type": "function"
        },
        {
            "inputs": [],
            "name": "stakingHelper",
            "outputs": [
                {
                    "internalType": "address",
                    "name": "",
                    "type": "address"
                }
            ],
            "stateMutability": "view",
            "type": "function"
        },
        {
            "inputs": [],
            "name": "standardizedDebtRatio",
            "outputs": [
                {
                    "internalType": "uint256",
                    "name": "",
                    "type": "uint256"
                }
            ],
            "stateMutability": "view",
            "type": "function"
        },
        {
            "inputs": [],
            "name": "terms",
            "outputs": [
                {
                    "internalType": "uint256",
                    "name": "controlVariable",
                    "type": "uint256"
                },
                {
                    "internalType": "uint256",
                    "name": "vestingTerm",
                    "type": "uint256"
                },
                {
                    "internalType": "uint256",
                    "name": "minimumPrice",
                    "type": "uint256"
                },
                {
                    "internalType": "uint256",
                    "name": "maxPayout",
                    "type": "uint256"
                },
                {
                    "internalType": "uint256",
                    "name": "fee",
                    "type": "uint256"
                },
                {
                    "internalType": "uint256",
                    "name": "maxDebt",
                    "type": "uint256"
                }
            ],
            "stateMutability": "view",
            "type": "function"
        },
        {
            "inputs": [],
            "name": "totalDebt",
            "outputs": [
                {
                    "internalType": "uint256",
                    "name": "",
                    "type": "uint256"
                }
            ],
            "stateMutability": "view",
            "type": "function"
        },
        {
            "inputs": [],
            "name": "treasury",
            "outputs": [
                {
                    "internalType": "address",
                    "name": "",
                    "type": "address"
                }
            ],
            "stateMutability": "view",
            "type": "function"
        },
        {
            "inputs": [],
            "name": "useHelper",
            "outputs": [
                {
                    "internalType": "bool",
                    "name": "",
                    "type": "bool"
                }
            ],
            "stateMutability": "view",
            "type": "function"
        }
    ],
    "bytecode": "0x6101406040523480156200001257600080fd5b506040516200467238038062004672833981810160405260a08110156200003857600080fd5b810190808051906020019092919080519060200190929190805190602001909291908051906020019092919080519060200190929190505050336000806101000a81548173ffffffffffffffffffffffffffffffffffffffff021916908373ffffffffffffffffffffffffffffffffffffffff16021790555060008054906101000a900473ffffffffffffffffffffffffffffffffffffffff1673ffffffffffffffffffffffffffffffffffffffff16600073ffffffffffffffffffffffffffffffffffffffff167fea8258f2d9ddb679928cf34b78cf645b7feda9acc828e4dd82d014eaae270eba60405160405180910390a3600073ffffffffffffffffffffffffffffffffffffffff168573ffffffffffffffffffffffffffffffffffffffff1614156200016757600080fd5b8473ffffffffffffffffffffffffffffffffffffffff1660808173ffffffffffffffffffffffffffffffffffffffff1660601b81525050600073ffffffffffffffffffffffffffffffffffffffff168473ffffffffffffffffffffffffffffffffffffffff161415620001d957600080fd5b8373ffffffffffffffffffffffffffffffffffffffff1660a08173ffffffffffffffffffffffffffffffffffffffff1660601b81525050600073ffffffffffffffffffffffffffffffffffffffff168373ffffffffffffffffffffffffffffffffffffffff1614156200024b57600080fd5b8273ffffffffffffffffffffffffffffffffffffffff1660c08173ffffffffffffffffffffffffffffffffffffffff1660601b81525050600073ffffffffffffffffffffffffffffffffffffffff168273ffffffffffffffffffffffffffffffffffffffff161415620002bd57600080fd5b8173ffffffffffffffffffffffffffffffffffffffff1660e08173ffffffffffffffffffffffffffffffffffffffff1660601b815250508073ffffffffffffffffffffffffffffffffffffffff166101208173ffffffffffffffffffffffffffffffffffffffff1660601b81525050600073ffffffffffffffffffffffffffffffffffffffff168173ffffffffffffffffffffffffffffffffffffffff161415151561010081151560f81b81525050505050505060805160601c60a05160601c60c05160601c60e05160601c6101005160f81c6101205160601c61422d62000445600039806119285280612397528061275a525080610dea52806118fa5280612366525080611b0e528061214f52806128355250806118505280611cce5280611f9e528061204f5250806109a752806119645280611a3d5280611d0a5280611f1b5280611f62528061208c52806123d352806127d952508061168652806121715280612780528061295a5280612c4b5280612e4c5280612f3352806130d2525061422d6000f3fe608060405234801561001057600080fd5b50600436106102115760003560e01c8063759076e511610125578063b4abccba116100ad578063d50256251161007c578063d5025625146108ec578063e0176de81461092d578063e392a2621461094b578063f5c2ab5b14610969578063fc7b9c181461098757610211565b8063b4abccba146107b7578063c3f2c48414610811578063cea55f571461087e578063d4d863ce1461089c57610211565b80637ed6943d116100f45780637ed6943d1461068a5780638dbdbe6d146106be578063904b3ece1461072a5780639560930414610748578063a4f3bcdf1461078357610211565b8063759076e5146105d857806377b81895146105f65780637927ebf81461062a5780637e8e4f961461066c57610211565b80632985a1ae116101a85780634cf088d9116101775780634cf088d9146104da578063507930ec1461050e5780635a405304146105665780635a96ac0a1461059a57806361d027b3146105a457610211565b80632985a1ae146103d05780632f3f470a1461043a578063451ee4a11461045a57806346f68ee91461049657610211565b80631a3d0068116101e45780631a3d0068146102e05780631b3da90a1461032e5780631feed31f1461034e57806321584044146103b257610211565b8063016a42841461021657806301b88ee81461024a5780630505c8c9146102a2578063089208d8146102d6575b600080fd5b61021e6109a5565b604051808273ffffffffffffffffffffffffffffffffffffffff16815260200191505060405180910390f35b61028c6004803603602081101561026057600080fd5b81019080803573ffffffffffffffffffffffffffffffffffffffff1690602001909291905050506109c9565b6040518082815260200191505060405180910390f35b6102aa610a60565b604051808273ffffffffffffffffffffffffffffffffffffffff16815260200191505060405180910390f35b6102de610a89565b005b61032c600480360360808110156102f657600080fd5b81019080803515159060200190929190803590602001909291908035906020019092919080359060200190929190505050610c08565b005b610336610de8565b60405180821515815260200191505060405180910390f35b61039c6004803603604081101561036457600080fd5b81019080803573ffffffffffffffffffffffffffffffffffffffff169060200190929190803515159060200190929190505050610e0c565b6040518082815260200191505060405180910390f35b6103ba611124565b6040518082815260200191505060405180910390f35b610438600480360360e08110156103e657600080fd5b810190808035906020019092919080359060200190929190803590602001909291908035906020019092919080359060200190929190803590602001909291908035906020019092919050505061118b565b005b61044261132f565b60405180821515815260200191505060405180910390f35b610462611342565b6040518086151581526020018581526020018481526020018381526020018281526020019550505050505060405180910390f35b6104d8600480360360208110156104ac57600080fd5b81019080803573ffffffffffffffffffffffffffffffffffffffff169060200190929190505050611373565b005b6104e2611578565b604051808273ffffffffffffffffffffffffffffffffffffffff16815260200191505060405180910390f35b6105506004803603602081101561052457600080fd5b81019080803573ffffffffffffffffffffffffffffffffffffffff16906020019092919050505061159e565b6040518082815260200191505060405180910390f35b61056e611684565b604051808273ffffffffffffffffffffffffffffffffffffffff16815260200191505060405180910390f35b6105a26116a8565b005b6105ac61184e565b604051808273ffffffffffffffffffffffffffffffffffffffff16815260200191505060405180910390f35b6105e0611872565b6040518082815260200191505060405180910390f35b6105fe611895565b604051808273ffffffffffffffffffffffffffffffffffffffff16815260200191505060405180910390f35b6106566004803603602081101561064057600080fd5b81019080803590602001909291905050506118bb565b6040518082815260200191505060405180910390f35b6106746118f6565b6040518082815260200191505060405180910390f35b610692611b0c565b604051808273ffffffffffffffffffffffffffffffffffffffff16815260200191505060405180910390f35b610714600480360360608110156106d457600080fd5b810190808035906020019092919080359060200190929190803573ffffffffffffffffffffffffffffffffffffffff169060200190929190505050611b30565b6040518082815260200191505060405180910390f35b610732612362565b6040518082815260200191505060405180910390f35b6107816004803603604081101561075e57600080fd5b81019080803560ff169060200190929190803590602001909291905050506124b0565b005b61078b612758565b604051808273ffffffffffffffffffffffffffffffffffffffff16815260200191505060405180910390f35b6107f9600480360360208110156107cd57600080fd5b81019080803573ffffffffffffffffffffffffffffffffffffffff16906020019092919050505061277c565b60405180821515815260200191505060405180910390f35b6108536004803603602081101561082757600080fd5b81019080803573ffffffffffffffffffffffffffffffffffffffff169060200190929190505050612925565b6040518085815260200184815260200183815260200182815260200194505050505060405180910390f35b610886612955565b6040518082815260200191505060405180910390f35b6108ea600480360360408110156108b257600080fd5b81019080803573ffffffffffffffffffffffffffffffffffffffff169060200190929190803515159060200190929190505050612a4a565b005b6108f4612c0d565b60405180878152602001868152602001858152602001848152602001838152602001828152602001965050505050505060405180910390f35b610935612c37565b6040518082815260200191505060405180910390f35b610953612d0b565b6040518082815260200191505060405180910390f35b610971612d67565b6040518082815260200191505060405180910390f35b61098f612d6d565b6040518082815260200191505060405180910390f35b7f000000000000000000000000000000000000000000000000000000000000000081565b6000806109d58361159e565b90506000600f60008573ffffffffffffffffffffffffffffffffffffffff1673ffffffffffffffffffffffffffffffffffffffff1681526020019081526020016000206000015490506127108210610a2f57809250610a59565b610a56612710610a488484612d7390919063ffffffff16565b612df990919063ffffffff16565b92505b5050919050565b60008060009054906101000a900473ffffffffffffffffffffffffffffffffffffffff16905090565b3373ffffffffffffffffffffffffffffffffffffffff1660008054906101000a900473ffffffffffffffffffffffffffffffffffffffff1673ffffffffffffffffffffffffffffffffffffffff1614610b4a576040517f08c379a00000000000000000000000000000000000000000000000000000000081526004018080602001828103825260208152602001807f4f776e61626c653a2063616c6c6572206973206e6f7420746865206f776e657281525060200191505060405180910390fd5b600073ffffffffffffffffffffffffffffffffffffffff1660008054906101000a900473ffffffffffffffffffffffffffffffffffffffff1673ffffffffffffffffffffffffffffffffffffffff167fea8258f2d9ddb679928cf34b78cf645b7feda9acc828e4dd82d014eaae270eba60405160405180910390a360008060006101000a81548173ffffffffffffffffffffffffffffffffffffffff021916908373ffffffffffffffffffffffffffffffffffffffff160217905550565b3373ffffffffffffffffffffffffffffffffffffffff1660008054906101000a900473ffffffffffffffffffffffffffffffffffffffff1673ffffffffffffffffffffffffffffffffffffffff1614610cc9576040517f08c379a00000000000000000000000000000000000000000000000000000000081526004018080602001828103825260208152602001807f4f776e61626c653a2063616c6c6572206973206e6f7420746865206f776e657281525060200191505060405180910390fd5b610cf76103e8610ce96101f4600460000154612d7390919063ffffffff16565b612df990919063ffffffff16565b831115610d6c576040517f08c379a00000000000000000000000000000000000000000000000000000000081526004018080602001828103825260138152602001807f496e6372656d656e7420746f6f206c617267650000000000000000000000000081525060200191505060405180910390fd5b6040518060a00160405280851515815260200184815260200183815260200182815260200143815250600a60008201518160000160006101000a81548160ff0219169083151502179055506020820151816001015560408201518160020155606082015181600301556080820151816004015590505050505050565b7f000000000000000000000000000000000000000000000000000000000000000081565b6000610e1661405a565b600f60008573ffffffffffffffffffffffffffffffffffffffff1673ffffffffffffffffffffffffffffffffffffffff16815260200190815260200160002060405180608001604052908160008201548152602001600182015481526020016002820154815260200160038201548152505090506000610e958561159e565b90506127108110610f7557600f60008673ffffffffffffffffffffffffffffffffffffffff1673ffffffffffffffffffffffffffffffffffffffff16815260200190815260200160002060008082016000905560018201600090556002820160009055600382016000905550508473ffffffffffffffffffffffffffffffffffffffff167f573cc809c1418bedd0228784600428eeaeeb5293feb9f3e227b008fb626e669d83600001516000604051808381526020018281526020019250505060405180910390a2610f6c85858460000151612e43565b9250505061111e565b6000610fa2612710610f94848660000151612d7390919063ffffffff16565b612df990919063ffffffff16565b90506040518060800160405280610fc683866000015161329a90919063ffffffff16565b8152602001610ff8610fe586604001514361329a90919063ffffffff16565b866020015161329a90919063ffffffff16565b81526020014381526020018460600151815250600f60008873ffffffffffffffffffffffffffffffffffffffff1673ffffffffffffffffffffffffffffffffffffffff168152602001908152602001600020600082015181600001556020820151816001015560408201518160020155606082015181600301559050508573ffffffffffffffffffffffffffffffffffffffff167f573cc809c1418bedd0228784600428eeaeeb5293feb9f3e227b008fb626e669d82600f60008a73ffffffffffffffffffffffffffffffffffffffff1673ffffffffffffffffffffffffffffffffffffffff16815260200190815260200160002060000154604051808381526020018281526020019250505060405180910390a2611118868683612e43565b93505050505b92915050565b600061117062989680611162633b9aca00611154611140612955565b600460000154612d7390919063ffffffff16565b6132e490919063ffffffff16565b612df990919063ffffffff16565b90506004600201548110156111885760046002015490505b90565b3373ffffffffffffffffffffffffffffffffffffffff1660008054906101000a900473ffffffffffffffffffffffffffffffffffffffff1673ffffffffffffffffffffffffffffffffffffffff161461124c576040517f08c379a00000000000000000000000000000000000000000000000000000000081526004018080602001828103825260208152602001807f4f776e61626c653a2063616c6c6572206973206e6f7420746865206f776e657281525060200191505060405180910390fd5b6000600460000154146112aa576040517f08c379a00000000000000000000000000000000000000000000000000000000081526004018080602001828103825260228152602001806140da6022913960400191505060405180910390fd5b6040518060c00160405280888152602001878152602001868152602001858152602001848152602001838152506004600082015181600001556020820151816001015560408201518160020155606082015181600301556080820151816004015560a08201518160050155905050806010819055504360118190555050505050505050565b600360149054906101000a900460ff1681565b600a8060000160009054906101000a900460ff16908060010154908060020154908060030154908060040154905085565b3373ffffffffffffffffffffffffffffffffffffffff1660008054906101000a900473ffffffffffffffffffffffffffffffffffffffff1673ffffffffffffffffffffffffffffffffffffffff1614611434576040517f08c379a00000000000000000000000000000000000000000000000000000000081526004018080602001828103825260208152602001807f4f776e61626c653a2063616c6c6572206973206e6f7420746865206f776e657281525060200191505060405180910390fd5b600073ffffffffffffffffffffffffffffffffffffffff168173ffffffffffffffffffffffffffffffffffffffff1614156114ba576040517f08c379a00000000000000000000000000000000000000000000000000000000081526004018080602001828103825260268152602001806140b46026913960400191505060405180910390fd5b8073ffffffffffffffffffffffffffffffffffffffff1660008054906101000a900473ffffffffffffffffffffffffffffffffffffffff1673ffffffffffffffffffffffffffffffffffffffff167fea8258f2d9ddb679928cf34b78cf645b7feda9acc828e4dd82d014eaae270eba60405160405180910390a380600160006101000a81548173ffffffffffffffffffffffffffffffffffffffff021916908373ffffffffffffffffffffffffffffffffffffffff16021790555050565b600260009054906101000a900473ffffffffffffffffffffffffffffffffffffffff1681565b60006115a861405a565b600f60008473ffffffffffffffffffffffffffffffffffffffff1673ffffffffffffffffffffffffffffffffffffffff1681526020019081526020016000206040518060800160405290816000820154815260200160018201548152602001600282015481526020016003820154815250509050600061163582604001514361329a90919063ffffffff16565b90506000826020015190506000811115611677576116708161166261271085612d7390919063ffffffff16565b612df990919063ffffffff16565b935061167c565b600093505b505050919050565b7f000000000000000000000000000000000000000000000000000000000000000081565b600160009054906101000a900473ffffffffffffffffffffffffffffffffffffffff1673ffffffffffffffffffffffffffffffffffffffff163373ffffffffffffffffffffffffffffffffffffffff161461174e576040517f08c379a00000000000000000000000000000000000000000000000000000000081526004018080602001828103825260228152602001806140fc6022913960400191505060405180910390fd5b600160009054906101000a900473ffffffffffffffffffffffffffffffffffffffff1673ffffffffffffffffffffffffffffffffffffffff1660008054906101000a900473ffffffffffffffffffffffffffffffffffffffff1673ffffffffffffffffffffffffffffffffffffffff167faa151555690c956fc3ea32f106bb9f119b5237a061eaa8557cff3e51e3792c8d60405160405180910390a3600160009054906101000a900473ffffffffffffffffffffffffffffffffffffffff166000806101000a81548173ffffffffffffffffffffffffffffffffffffffff021916908373ffffffffffffffffffffffffffffffffffffffff160217905550565b7f000000000000000000000000000000000000000000000000000000000000000081565b600061189061187f612d0b565b60105461329a90919063ffffffff16565b905090565b600360009054906101000a900473ffffffffffffffffffffffffffffffffffffffff1681565b60006118ef662386f26fc100006118e16118dc856118d7611124565b61336c565b61364d565b612df990919063ffffffff16565b9050919050565b60007f000000000000000000000000000000000000000000000000000000000000000015611a3357611a2c6064611a1e7f000000000000000000000000000000000000000000000000000000000000000073ffffffffffffffffffffffffffffffffffffffff166332da80a37f00000000000000000000000000000000000000000000000000000000000000006040518263ffffffff1660e01b8152600401808273ffffffffffffffffffffffffffffffffffffffff16815260200191505060206040518083038186803b1580156119cd57600080fd5b505afa1580156119e1573d6000803e3d6000fd5b505050506040513d60208110156119f757600080fd5b8101908080519060200190929190505050611a10611124565b612d7390919063ffffffff16565b612df990919063ffffffff16565b9050611b09565b611b066064611af87f000000000000000000000000000000000000000000000000000000000000000073ffffffffffffffffffffffffffffffffffffffff1663313ce5676040518163ffffffff1660e01b815260040160206040518083038186803b158015611aa157600080fd5b505afa158015611ab5573d6000803e3d6000fd5b505050506040513d6020811015611acb57600080fd5b810190808051906020019092919050505060ff16600a0a611aea611124565b612d7390919063ffffffff16565b612df990919063ffffffff16565b90505b90565b7f000000000000000000000000000000000000000000000000000000000000000081565b60008073ffffffffffffffffffffffffffffffffffffffff168273ffffffffffffffffffffffffffffffffffffffff161415611bd4576040517f08c379a000000000000000000000000000000000000000000000000000000000815260040180806020018281038252600f8152602001807f496e76616c69642061646472657373000000000000000000000000000000000081525060200191505060405180910390fd5b611bdc613689565b6004600501546010541115611c59576040517f08c379a00000000000000000000000000000000000000000000000000000000081526004018080602001828103825260148152602001807f4d6178206361706163697479207265616368656400000000000000000000000081525060200191505060405180910390fd5b6000611c636118f6565b90506000611c6f6136b4565b905080851015611cca576040517f08c379a00000000000000000000000000000000000000000000000000000000081526004018080602001828103825260238152602001806141876023913960400191505060405180910390fd5b60007f000000000000000000000000000000000000000000000000000000000000000073ffffffffffffffffffffffffffffffffffffffff16631eec5a9a7f0000000000000000000000000000000000000000000000000000000000000000896040518363ffffffff1660e01b8152600401808373ffffffffffffffffffffffffffffffffffffffff1681526020018281526020019250505060206040518083038186803b158015611d7b57600080fd5b505afa158015611d8f573d6000803e3d6000fd5b505050506040513d6020811015611da557600080fd5b810190808051906020019092919050505090506000611dc3826118bb565b905062989680811015611e3e576040517f08c379a00000000000000000000000000000000000000000000000000000000081526004018080602001828103825260108152602001807f42617274657220746f6f20736d616c6c0000000000000000000000000000000081525060200191505060405180910390fd5b611e46612c37565b811115611ebb576040517f08c379a00000000000000000000000000000000000000000000000000000000081526004018080602001828103825260108152602001807f42617274657220746f6f206c617267650000000000000000000000000000000081525060200191505060405180910390fd5b6000611ee8612710611eda600480015485612d7390919063ffffffff16565b612df990919063ffffffff16565b90506000611f1182611f03858761329a90919063ffffffff16565b61329a90919063ffffffff16565b9050611f6033308c7f000000000000000000000000000000000000000000000000000000000000000073ffffffffffffffffffffffffffffffffffffffff16613739909392919063ffffffff16565b7f000000000000000000000000000000000000000000000000000000000000000073ffffffffffffffffffffffffffffffffffffffff1663095ea7b37f00000000000000000000000000000000000000000000000000000000000000008c6040518363ffffffff1660e01b8152600401808373ffffffffffffffffffffffffffffffffffffffff16815260200182815260200192505050602060405180830381600087803b15801561201157600080fd5b505af1158015612025573d6000803e3d6000fd5b505050506040513d602081101561203b57600080fd5b8101908080519060200190929190505050507f000000000000000000000000000000000000000000000000000000000000000073ffffffffffffffffffffffffffffffffffffffff1663bc157ac18b7f0000000000000000000000000000000000000000000000000000000000000000846040518463ffffffff1660e01b8152600401808481526020018373ffffffffffffffffffffffffffffffffffffffff1681526020018281526020019350505050602060405180830381600087803b15801561210657600080fd5b505af115801561211a573d6000803e3d6000fd5b505050506040513d602081101561213057600080fd5b810190808051906020019092919050505050600082146121b6576121b57f0000000000000000000000000000000000000000000000000000000000000000837f000000000000000000000000000000000000000000000000000000000000000073ffffffffffffffffffffffffffffffffffffffff166137fa9092919063ffffffff16565b5b6121cb846010546132e490919063ffffffff16565b601081905550604051806080016040528061223185600f60008d73ffffffffffffffffffffffffffffffffffffffff1673ffffffffffffffffffffffffffffffffffffffff168152602001908152602001600020600001546132e490919063ffffffff16565b8152602001600460010154815260200143815260200187815250600f60008a73ffffffffffffffffffffffffffffffffffffffff1673ffffffffffffffffffffffffffffffffffffffff16815260200190815260200160002060008201518160000155602082015181600101556040820151816002015560608201518160030155905050856122ce600460010154436132e490919063ffffffff16565b847fe1c6db3a3f1e8ca4048b70664ff374b93f37c0e11775191533fcd907ca4d27228d6040518082815260200191505060405180910390a461230e612955565b6123166136b4565b61231e6118f6565b7f0f9b7b5fb654f612d5147069dfd0ced17bbd5971aa6856cf21135b8384aac8eb60405160405180910390a461235261389c565b8296505050505050509392505050565b60007f0000000000000000000000000000000000000000000000000000000000000000156124a25761249b633b9aca0061248d7f000000000000000000000000000000000000000000000000000000000000000073ffffffffffffffffffffffffffffffffffffffff166332da80a37f00000000000000000000000000000000000000000000000000000000000000006040518263ffffffff1660e01b8152600401808273ffffffffffffffffffffffffffffffffffffffff16815260200191505060206040518083038186803b15801561243c57600080fd5b505afa158015612450573d6000803e3d6000fd5b505050506040513d602081101561246657600080fd5b810190808051906020019092919050505061247f612955565b612d7390919063ffffffff16565b612df990919063ffffffff16565b90506124ad565b6124aa612955565b90505b90565b3373ffffffffffffffffffffffffffffffffffffffff1660008054906101000a900473ffffffffffffffffffffffffffffffffffffffff1673ffffffffffffffffffffffffffffffffffffffff1614612571576040517f08c379a00000000000000000000000000000000000000000000000000000000081526004018080602001828103825260208152602001807f4f776e61626c653a2063616c6c6572206973206e6f7420746865206f776e657281525060200191505060405180910390fd5b6000600381111561257e57fe5b82600381111561258a57fe5b14156125fa5761e40a8110156125eb576040517f08c379a00000000000000000000000000000000000000000000000000000000081526004018080602001828103825260248152602001806141aa6024913960400191505060405180910390fd5b80600460010181905550612754565b6001600381111561260757fe5b82600381111561261357fe5b14156126a0576103e8811115612691576040517f08c379a00000000000000000000000000000000000000000000000000000000081526004018080602001828103825260208152602001807f5061796f75742063616e6e6f742062652061626f766520312070657263656e7481525060200191505060405180910390fd5b80600460030181905550612753565b600260038111156126ad57fe5b8260038111156126b957fe5b14156127285761271081111561271a576040517f08c379a00000000000000000000000000000000000000000000000000000000081526004018080602001828103825260228152602001806141446022913960400191505060405180910390fd5b806004800181905550612752565b60038081111561273457fe5b82600381111561274057fe5b141561275157806004600501819055505b5b5b5b5050565b7f000000000000000000000000000000000000000000000000000000000000000081565b60007f000000000000000000000000000000000000000000000000000000000000000073ffffffffffffffffffffffffffffffffffffffff168273ffffffffffffffffffffffffffffffffffffffff1614156127d757600080fd5b7f000000000000000000000000000000000000000000000000000000000000000073ffffffffffffffffffffffffffffffffffffffff168273ffffffffffffffffffffffffffffffffffffffff16141561283057600080fd5b61291c7f00000000000000000000000000000000000000000000000000000000000000008373ffffffffffffffffffffffffffffffffffffffff166370a08231306040518263ffffffff1660e01b8152600401808273ffffffffffffffffffffffffffffffffffffffff16815260200191505060206040518083038186803b1580156128bb57600080fd5b505afa1580156128cf573d6000803e3d6000fd5b505050506040513d60208110156128e557600080fd5b81019080805190602001909291905050508473ffffffffffffffffffffffffffffffffffffffff166137fa9092919063ffffffff16565b60019050919050565b600f6020528060005260406000206000915090508060000154908060010154908060020154908060030154905084565b6000807f000000000000000000000000000000000000000000000000000000000000000073ffffffffffffffffffffffffffffffffffffffff166318160ddd6040518163ffffffff1660e01b815260040160206040518083038186803b1580156129be57600080fd5b505afa1580156129d2573d6000803e3d6000fd5b505050506040513d60208110156129e857600080fd5b81019080805190602001909291905050509050612a44670de0b6b3a7640000612a36612a31612a2b633b9aca00612a1d611872565b612d7390919063ffffffff16565b8561336c565b61364d565b612df990919063ffffffff16565b91505090565b3373ffffffffffffffffffffffffffffffffffffffff1660008054906101000a900473ffffffffffffffffffffffffffffffffffffffff1673ffffffffffffffffffffffffffffffffffffffff1614612b0b576040517f08c379a00000000000000000000000000000000000000000000000000000000081526004018080602001828103825260208152602001807f4f776e61626c653a2063616c6c6572206973206e6f7420746865206f776e657281525060200191505060405180910390fd5b600073ffffffffffffffffffffffffffffffffffffffff168273ffffffffffffffffffffffffffffffffffffffff161415612b4557600080fd5b8015612bac576001600360146101000a81548160ff02191690831515021790555081600360006101000a81548173ffffffffffffffffffffffffffffffffffffffff021916908373ffffffffffffffffffffffffffffffffffffffff160217905550612c09565b6000600360146101000a81548160ff02191690831515021790555081600260006101000a81548173ffffffffffffffffffffffffffffffffffffffff021916908373ffffffffffffffffffffffffffffffffffffffff1602179055505b5050565b60048060000154908060010154908060020154908060030154908060040154908060050154905086565b6000612d06620186a0612cf86004600301547f000000000000000000000000000000000000000000000000000000000000000073ffffffffffffffffffffffffffffffffffffffff166318160ddd6040518163ffffffff1660e01b815260040160206040518083038186803b158015612caf57600080fd5b505afa158015612cc3573d6000803e3d6000fd5b505050506040513d6020811015612cd957600080fd5b8101908080519060200190929190505050612d7390919063ffffffff16565b612df990919063ffffffff16565b905090565b600080612d236011544361329a90919063ffffffff16565b9050612d51600460010154612d4383601054612d7390919063ffffffff16565b612df990919063ffffffff16565b9150601054821115612d635760105491505b5090565b60115481565b60105481565b600080831415612d865760009050612df3565b6000828402905082848281612d9757fe5b0414612dee576040517f08c379a00000000000000000000000000000000000000000000000000000000081526004018080602001828103825260218152602001806141666021913960400191505060405180910390fd5b809150505b92915050565b6000612e3b83836040518060400160405280601a81526020017f536166654d6174683a206469766973696f6e206279207a65726f000000000000815250613a02565b905092915050565b600082612f1c577f000000000000000000000000000000000000000000000000000000000000000073ffffffffffffffffffffffffffffffffffffffff1663a9059cbb85846040518363ffffffff1660e01b8152600401808373ffffffffffffffffffffffffffffffffffffffff16815260200182815260200192505050602060405180830381600087803b158015612edb57600080fd5b505af1158015612eef573d6000803e3d6000fd5b505050506040513d6020811015612f0557600080fd5b810190808051906020019092919050505050613290565b600360149054906101000a900460ff16156130d0577f000000000000000000000000000000000000000000000000000000000000000073ffffffffffffffffffffffffffffffffffffffff1663095ea7b3600360009054906101000a900473ffffffffffffffffffffffffffffffffffffffff16846040518363ffffffff1660e01b8152600401808373ffffffffffffffffffffffffffffffffffffffff16815260200182815260200192505050602060405180830381600087803b158015612fe457600080fd5b505af1158015612ff8573d6000803e3d6000fd5b505050506040513d602081101561300e57600080fd5b810190808051906020019092919050505050600360009054906101000a900473ffffffffffffffffffffffffffffffffffffffff1673ffffffffffffffffffffffffffffffffffffffff16637acb775783866040518363ffffffff1660e01b8152600401808381526020018273ffffffffffffffffffffffffffffffffffffffff16815260200192505050600060405180830381600087803b1580156130b357600080fd5b505af11580156130c7573d6000803e3d6000fd5b5050505061328f565b7f000000000000000000000000000000000000000000000000000000000000000073ffffffffffffffffffffffffffffffffffffffff1663095ea7b3600260009054906101000a900473ffffffffffffffffffffffffffffffffffffffff16846040518363ffffffff1660e01b8152600401808373ffffffffffffffffffffffffffffffffffffffff16815260200182815260200192505050602060405180830381600087803b15801561318357600080fd5b505af1158015613197573d6000803e3d6000fd5b505050506040513d60208110156131ad57600080fd5b810190808051906020019092919050505050600260009054906101000a900473ffffffffffffffffffffffffffffffffffffffff1673ffffffffffffffffffffffffffffffffffffffff16637acb775783866040518363ffffffff1660e01b8152600401808381526020018273ffffffffffffffffffffffffffffffffffffffff16815260200192505050602060405180830381600087803b15801561325257600080fd5b505af1158015613266573d6000803e3d6000fd5b505050506040513d602081101561327c57600080fd5b8101908080519060200190929190505050505b5b8190509392505050565b60006132dc83836040518060400160405280601e81526020017f536166654d6174683a207375627472616374696f6e206f766572666c6f770000815250613ac8565b905092915050565b600080828401905083811015613362576040517f08c379a000000000000000000000000000000000000000000000000000000000815260040180806020018281038252601b8152602001807f536166654d6174683a206164646974696f6e206f766572666c6f77000000000081525060200191505060405180910390fd5b8091505092915050565b613374614082565b600082116133cd576040517f08c379a000000000000000000000000000000000000000000000000000000000815260040180806020018281038252602681526020018061411e6026913960400191505060405180910390fd5b600083141561340b57604051806020016040528060007bffffffffffffffffffffffffffffffffffffffffffffffffffffffff168152509050613647565b7fffffffffffffffffffffffffffffffffffffffffffffffffffffffffffffffff71ffffffffffffffffffffffffffffffffffff16831161354457600082607060ff1685901b8161345857fe5b0490507fffffffffffffffffffffffffffffffffffffffffffffffffffffffffffffffff7bffffffffffffffffffffffffffffffffffffffffffffffffffffffff1681111561350f576040517f08c379a000000000000000000000000000000000000000000000000000000000815260040180806020018281038252601e8152602001807f4669786564506f696e743a3a6672616374696f6e3a206f766572666c6f77000081525060200191505060405180910390fd5b6040518060200160405280827bffffffffffffffffffffffffffffffffffffffffffffffffffffffff16815250915050613647565b6000613560846e01000000000000000000000000000085613b88565b90507fffffffffffffffffffffffffffffffffffffffffffffffffffffffffffffffff7bffffffffffffffffffffffffffffffffffffffffffffffffffffffff16811115613616576040517f08c379a000000000000000000000000000000000000000000000000000000000815260040180806020018281038252601e8152602001807f4669786564506f696e743a3a6672616374696f6e3a206f766572666c6f77000081525060200191505060405180910390fd5b6040518060200160405280827bffffffffffffffffffffffffffffffffffffffffffffffffffffffff168152509150505b92915050565b60006612725dd1d243ab82600001517bffffffffffffffffffffffffffffffffffffffffffffffffffffffff168161368157fe5b049050919050565b6136a5613694612d0b565b60105461329a90919063ffffffff16565b60108190555043601181905550565b6000613700629896806136f2633b9aca006136e46136d0612955565b600460000154612d7390919063ffffffff16565b6132e490919063ffffffff16565b612df990919063ffffffff16565b905060046002015481101561371c576004600201549050613736565b6000600460020154146137355760006004600201819055505b5b90565b6137f4846323b872dd60e01b858585604051602401808473ffffffffffffffffffffffffffffffffffffffff1681526020018373ffffffffffffffffffffffffffffffffffffffff1681526020018281526020019350505050604051602081830303815290604052907bffffffffffffffffffffffffffffffffffffffffffffffffffffffff19166020820180517bffffffffffffffffffffffffffffffffffffffffffffffffffffffff8381831617835250505050613c4a565b50505050565b6138978363a9059cbb60e01b8484604051602401808373ffffffffffffffffffffffffffffffffffffffff16815260200182815260200192505050604051602081830303815290604052907bffffffffffffffffffffffffffffffffffffffffffffffffffffffff19166020820180517bffffffffffffffffffffffffffffffffffffffffffffffffffffffff8381831617835250505050613c4a565b505050565b60006138bb600a60030154600a600401546132e490919063ffffffff16565b90506000600a60010154141580156138d35750804310155b156139ff5760006004600001549050600a60000160009054906101000a900460ff161561394257613917600a600101546004600001546132e490919063ffffffff16565b600460000181905550600a600201546004600001541061393d576000600a600101819055505b613986565b61395f600a6001015460046000015461329a90919063ffffffff16565b600460000181905550600a6002015460046000015411613985576000600a600101819055505b5b43600a600401819055507fb923e581a0f83128e9e1d8297aa52b18d6744310476e0b54509c054cd7a93b2a81600460000154600a60010154600a60000160009054906101000a900460ff1660405180858152602001848152602001838152602001821515815260200194505050505060405180910390a1505b50565b60008083118290613aae576040517f08c379a00000000000000000000000000000000000000000000000000000000081526004018080602001828103825283818151815260200191508051906020019080838360005b83811015613a73578082015181840152602081019050613a58565b50505050905090810190601f168015613aa05780820380516001836020036101000a031916815260200191505b509250505060405180910390fd5b506000838581613aba57fe5b049050809150509392505050565b6000838311158290613b75576040517f08c379a00000000000000000000000000000000000000000000000000000000081526004018080602001828103825283818151815260200191508051906020019080838360005b83811015613b3a578082015181840152602081019050613b1f565b50505050905090810190601f168015613b675780820380516001836020036101000a031916815260200191505b509250505060405180910390fd5b5060008385039050809150509392505050565b6000806000613b978686613d39565b9150915060008480613ba557fe5b868809905082811115613bb9576001820391505b8083039250848210613c33576040517f08c379a000000000000000000000000000000000000000000000000000000000815260040180806020018281038252601a8152602001807f46756c6c4d6174683a3a6d756c4469763a206f766572666c6f7700000000000081525060200191505060405180910390fd5b613c3e838387613d8c565b93505050509392505050565b6060613cac826040518060400160405280602081526020017f5361666545524332303a206c6f772d6c6576656c2063616c6c206661696c65648152508573ffffffffffffffffffffffffffffffffffffffff16613e299092919063ffffffff16565b9050600081511115613d3457808060200190516020811015613ccd57600080fd5b8101908080519060200190929190505050613d33576040517f08c379a000000000000000000000000000000000000000000000000000000000815260040180806020018281038252602a8152602001806141ce602a913960400191505060405180910390fd5b5b505050565b60008060007fffffffffffffffffffffffffffffffffffffffffffffffffffffffffffffffff80613d6657fe5b84860990508385029250828103915082811015613d84576001820391505b509250929050565b6000808260000383169050808381613da057fe5b049250808581613dac57fe5b0494506001818260000381613dbd57fe5b04018402850194506000600190508084026002038102905080840260020381029050808402600203810290508084026002038102905080840260020381029050808402600203810290508084026002038102905080840260020381029050808602925050509392505050565b6060613e388484600085613e41565b90509392505050565b6060613e4c85614047565b613ebe576040517f08c379a000000000000000000000000000000000000000000000000000000000815260040180806020018281038252601d8152602001807f416464726573733a2063616c6c20746f206e6f6e2d636f6e747261637400000081525060200191505060405180910390fd5b600060608673ffffffffffffffffffffffffffffffffffffffff1685876040518082805190602001908083835b60208310613f0e5780518252602082019150602081019050602083039250613eeb565b6001836020036101000a03801982511681845116808217855250505050505090500191505060006040518083038185875af1925050503d8060008114613f70576040519150601f19603f3d011682016040523d82523d6000602084013e613f75565b606091505b50915091508115613f8a57809250505061403f565b600081511115613f9d5780518082602001fd5b836040517f08c379a00000000000000000000000000000000000000000000000000000000081526004018080602001828103825283818151815260200191508051906020019080838360005b83811015614004578082015181840152602081019050613fe9565b50505050905090810190601f1680156140315780820380516001836020036101000a031916815260200191505b509250505060405180910390fd5b949350505050565b600080823b905060008111915050919050565b6040518060800160405280600081526020016000815260200160008152602001600081525090565b604051806020016040528060007bffffffffffffffffffffffffffffffffffffffffffffffffffffffff168152509056fe4f776e61626c653a206e6577206f776e657220697320746865207a65726f206164647265737342617274657273206d75737420626520696e697469616c697a65642066726f6d20304f776e61626c653a206d757374206265206e6577206f776e657220746f2070756c6c4669786564506f696e743a3a6672616374696f6e3a206469766973696f6e206279207a65726f41746c61735465616d206665652063616e6e6f7420657863656564207061796f7574536166654d6174683a206d756c7469706c69636174696f6e206f766572666c6f77536c697070616765206c696d69743a206d6f7265207468616e206d617820707269636556657374696e67206d757374206265206c6f6e676572207468616e20333620686f7572735361666545524332303a204552433230206f7065726174696f6e20646964206e6f742073756363656564a2646970667358221220a3167832858d4aa676243ffddf96e66fc2fd5b12d3d56a12038ee533807c0ab764736f6c63430007050033",
    "linkReferences": {},
    "deployedLinkReferences": {}
}